:020000020000FC
:100000000FEF0AB90DE001D0FDCF003009F428C090
:10001000013009F42DC0023009F432C0033009F474
:1000200037C0043009F43CC0053009F441C0063043
:1000300009F446C0073009F44BC0083009F450C039
:10004000093009F455C00A3009F45AC00B3009F4DC
:100050005FC00C3009F464C00D3009F469C0089524
:10006000F1E0E0E4E00F08F4F39504900BB8089594
:10007000F1E0E0E4E00F08F4F39504900BB8089584
:10008000F1E0E0E4E00F08F4F39504900BB8089574
:10009000F1E0E0E4E00F08F4F39504900BB8089564
:1000A000F1E0E0E4E00F08F4F39504900BB8089554
:1000B000F1E0E0E4E00F08F4F39504900BB8089544
:1000C000F1E0E0E4E00F08F4F39504900BB8089534
:1000D000F1E0E0E4E00F08F4F39504900BB8089524
:1000E000F1E0E0E4E00F08F4F39504900BB8089514
:1000F000F1E0E0E4E00F08F4F39504900BB8089504
:10010000F1E0E0E4E00F08F4F39504900BB80895F3
:10011000F1E0E0E4E00F08F4F39504900BB80895E3
:10012000F1E0E0E4E00F08F4F39504900BB80895D3
:10013000F1E0E0E4E00F08F4F39504900BB80895C3
:0E014000395C7377005E7C506D30385B3F7D1C
:00000001FF
